:100000000C94D5000C94FD000C94FD000C94FD00A4
:100010000C94FD000C94FD000C94FD000C94FD006C
:100020000C94FD000C94FD000C9461080C94D00815
:100030000C94FD000C94FD000C94FD000C94FD004C
:100040000C94FD000C94FD000C94FD000C94FD003C
:100050000C94FD000C94FD000C94FD000C94020B1C
:100060000C94FD000C94FD000C94FD000C94FD001C
:100070000C94FD000C94FD000C94FD000C94FD000C
:100080000C94FD000C94FD000C94FD000C94FD00FC
:100090000C944C0B0C94FD000C94FD000C94FD0092
:1000A0000C94FD000C94FD000C94FD000000000079
:1000B000240027002A002D00300000000000250049
:1000C00028002B002E003100080B00020202000065
:1000D00009040000010202000005240010010524AB
:1000E000010101042402060524060001070581031D
:1000F00010004009040100020A0000000705020286
:1001000040000007058302400000040309041201B7
:100110000002EF0201404123368000010102030189
:1001200041726475696E6F204C4C43004172647576
:10013000696E6F204C656F6E6172646F0000000025
:10014000002300260029002C002F000404040404CE
:10015000030405020202020403020202020606066A
:100160000606060404020202040404080201104008
:100170008040102040804080080204018040201010
:100180000201108010204040200000000200090FF2
:100190000000030401000C0000000000000000004B
:1001A00000000000000000006B0C11241FBECFEF08
:1001B000DAE0DEBFCDBF11E0A0E0B1E0E0EDF3E2B8
:1001C00002C005900D92A43BB107D9F723E0A4EB40
:1001D000B1E001C01D92A930B207E1F710E0C5ED12
:1001E000D0E004C02197FE010E94080FC43DD10752
:1001F000C9F70E94960C0C94E6110C940000FC01C7
:1002000080913C02882311F13FB7F89482E08093FB
:10021000E9002091F200822F90E01816190614F4DC
:1002200081E090E0882339F0289844E640933B022F
:100230004091F1004083222339F02091F2002111F6
:1002400003C02BE62093E8003FBF08958FEF9FEF98
:1002500008952FB7F89483E08093E9009091E80027
:10026000892F807295FF04C09091F20080E4891B71
:100270002FBF08958091330281110DC082E08093D9
:100280002F0284E0809330021092320210923102E9
:1002900081E0809333028FE292E00895CF93DF9361
:1002A0001F92CDB7DEB76983DC01ED91FC9102802E
:1002B000F381E02D41E050E0BE016F5F7F4F099573
:1002C0000F90DF91CF91089583E08093E9008091B2
:1002D000F200882319F08AE38093E80008950E94D1
:1002E000290190E00895CF93DF931F92CDB7DEB739
:1002F000FC018485958597FD08C02FEF3FEF35877A
:1003000024870F90DF91CF910895CE0101960E942E
:10031000FF00019719F4898190E0F3CF8FEF9FEFF1
:10032000F0CF0F931F93CF93DF931F92CDB7DEB71C
:100330008C01FC018485958597FF0BC0CE01019649
:100340000E94FF00019771F4898190E0F801958780
:100350008487F801848595850F90DF91CF911F9157
:100360000F9108958FEF9FEFF1CFFC018485958564
:1003700097FD0BC09FB7F89482E08093E9008091CD
:10038000F2009FBF90E0019608959FB7F89482E035
:100390008093E9008091F2009FBF90E00895409122
:1003A000290250912A0220912702309128024217F7
:1003B0005307B4F49091E8009570E1F39091E80050
:1003C00092FD19C08093F1008091290290912A0238
:1003D00001968F739927892B19F48EEF8093E8008B
:1003E0008091290290912A02019690932A0280938B
:1003F000290281E0089580E00895EF92FF920F9323
:100400001F93CF93DF93F82E192FE62E042F81E050
:10041000860F880F0E94CF0183E00E94CF01CF2D6D
:10042000D12FEC0EFD2EF11CCE15DF05B9F007FF24
:1004300013C0FE0184910E94CF01182F80E00E941A
:10044000CF01812321968111EFCFDF91CF911F91B1
:100450000F91FF90EF9008958881EDCF81E0F5CF67
:10046000DF92EF92FF920F931F93CF93DF93D82EDB
:100470008A01EB017B01E40EF51ECE15DF0559F074
:10048000D7FE12C0FE0184910E94CF0121968111F6
:10049000F4CF0FEF1FEFC801DF91CF911F910F91A4
:1004A000FF90EF90DF9008958881EECF0F931F9318
:1004B000CF93DF931F92CDB7DEB782E0898342E40A
:1004C00050E068EC70E080E80E9430020E943A013F
:1004D000DC0112960D911C910115110589F0D801CE
:1004E000ED91FC910280F381E02DBE016F5F7F4FA3
:1004F000C801099597FD04C0F80100851185ECCF6E
:1005000089810F90DF91CF911F910F9108956150D4
:1005100030F02091F100FC0120830196F8CF28985B
:1005200084E680933B02089508950895AF92BF92A8
:10053000CF92DF92EF92FF920F931F93CF93DF93AF
:100540006C017B018B01040F151FEB015E01AE18DE
:10055000BF08C017D10759F06991D601ED91FC9100
:100560000190F081E02DC6010995892B79F7C5012D
:10057000DF91CF911F910F91FF90EF90DF90CF907F
:10058000BF90AF90089581508F3008F047C0E82F9A
:10059000F0E0E353FD4F0C94080FEA02EE02DC0298
:1005A000E202E6020E030E030E03F102F702FB0263
:1005B000FF0205030E030903809180008F7780936B
:1005C00080000895809180008F7DF9CF8091800018
:1005D000877FF5CF84B58F7784BD089584B58F7DEF
:1005E000FBCF809190008F77809390000895809149
:1005F00090008F7DF9CF80919000877FF5CF80911B
:10060000C0008F778093C00008958091C0008F7DD7
:10061000F9CF8091C200877F8093C2000895CF9365
:10062000DF93ECE9F1E08491EDE7F1E0D491EEE5C0
:10063000F1E0C491CC23A1F081110E94C302EC2F00
:10064000F0E0EE0FFF1FE35CFE4FA591B491EC913B
:10065000ED2381E090E009F480E0DF91CF910895EF
:1006600080E090E0FACF1F93CF93DF93282F30E004
:10067000F901E757FE4F8491F901E659FE4FD491F5
:10068000F901E55BFE4FC491CC23A9F0162F81112F
:100690000E94C302EC2FF0E0EE0FFF1FE654FF4F65
:1006A000A591B4918FB7F894EC91111108C0D09531
:1006B000DE23DC938FBFDF91CF911F910895DE2B56
:1006C000F8CFCF93DF9390E0FC01E659FE4F2491E1
:1006D000855B9E4FFC0184918823D1F090E0880FC8
:1006E000991FFC01E455FF4FA591B491FC01E6541C
:1006F000FF4FC591D491623071F49FB7F8943C914B
:10070000822F809583238C93E8812E2B28839FBF93
:10071000DF91CF9108958FB7F894EC912E2B2C9305
:100720008FBFF6CF1F93CF93DF93182FEB0161E0BC
:100730000E946103209739F460E0812FDF91CF910F
:100740001F910C943303CF3FD10511F461E0F5CF35
:10075000E12FF0E0E757FE4FE491E150EF3008F071
:100760007FC0F0E0EA54FC4F0C94080FC503CD03A2
:10077000D203DC03E603300430043004F003FA0350
:1007800004040E041B043004230484B5806884BD73
:10079000C7BDDF91CF911F91089584B5806284BD5C
:1007A000C8BDF7CF80918000806880938000D0938F
:1007B0008900C0938800EDCF809180008062809393
:1007C0008000D0938B00C0938A00E3CF809180009B
:1007D000886080938000D0938D00C0938C00D9CF27
:1007E00080919000806880939000D0939900C0938E
:1007F0009800CFCF80919000806280939000D0933A
:100800009B00C0939A00C5CF809190008860809330
:100810009000D0939D00C0939C00BBCF8091C000FE
:1008200080688093C0008091C0008F7B8093C0005F
:10083000C093CF00AECF8091C00080628093C00093
:10084000C093D000A6CF8091C20088608093C20080
:100850008091C2008B7F8093C200C093D20099CF59
:10086000C038D1050CF072CF67CF3FB7F8948091B4
:100870001D0290911E02A0911F02B091200226B588
:10088000A89B05C02F3F19F00196A11DB11D3FBFC8
:10089000BA2FA92F982F8827BC01CD01620F711D97
:1008A000811D911D42E0660F771F881F991F4A9591
:1008B000D1F708958F929F92AF92BF92CF92DF921D
:1008C000EF92FF924B015C010E9435046B017C01A9
:1008D0000E9435046C197D098E099F09683E73409A
:1008E00081059105A8F321E0821A9108A108B108B9
:1008F00088EEC80E83E0D81EE11CF11C811491041F
:10090000A104B10429F7FF90EF90DF90CF90BF9042
:10091000AF909F908F9008958F929F92AF92BF92C9
:10092000CF92DF92EF92FF920F931F93CF93DF93BB
:100930006C017B018A0180910B01882309F45CC062
:1009400080913C02882309F457C080912E0280FFD9
:1009500005C08091E00082608093E000E801B12C46
:100960008AEFA82E93E0892E2AE3922E209711F485
:10097000BB20D9F10E94290181110AC0AA94AA20A2
:10098000D9F161E070E080E090E00E945A04EECF7F
:100990008C171D0611F00CF08C2F9FB7F8948092E5
:1009A000E9002091E80025FD02C09FBFDFCF282F7E
:1009B00030E0C21BD30BF701815020F041914093EE
:1009C000F100FACFE20EF31EBB2021F09092E80076
:1009D000B12CEBCF8091E80085FDE7CF9092E80045
:1009E000BB24B394209709F3F3CF5D9884E68093FA
:1009F0002D02101611063CF081E090E0F601938381
:100A0000828310E000E0C801DF91CF911F910F9128
:100A1000FF90EF90DF90CF90BF90AF909F908F901E
:100A2000089508952091F501260F3327331F2132B1
:100A30003105ECF420917902FC0190E080E0243053
:100A400069F082E00895A091F5012191AC014B522B
:100A50005E4FA40FB52FB11D2C930196861798F306
:100A60008091F501680F6093F50180E0089581E0C1
:100A700008951092790281E08093780210925302D7
:100A800061E082E00E94330361E083E00E9433036F
:100A9000E9EBF0E080818E7F808380818D7F808391
:100AA00088E48093B80085E48093BC000895CF93D8
:100AB000DF9391E09093D4018823B9F0C091B800FE
:100AC000D091BA008091BC008A7B8093BC0060E02A
:100AD00082E00E94330360E083E00E9433030E94BF
:100AE0003905D093BA00C093B800DF91CF91089533
:100AF000CF92DF92EF92FF920F931F93CF93DF93EA
:100B0000D091A20281E0D13208F09CC0C091A10234
:100B10000E9435046B017C018091790281116CC0C7
:100B200082E08093790281E0809378028FEF809356
:100B3000770210927602D0937502A1E8B2E0E5E563
:100B4000F2E080E0D8138DC01092540280915402DC
:100B5000CC0FC82BC093540280915302813009F00E
:100B600084C0109253020E9435046B017C01809175
:100B700054028093BB0080917B0290917C02A091F3
:100B80007D02B0917E02892B8A2B8B2BA1F00E94D3
:100B9000350400917B0210917C0220917D023091FE
:100BA0007E026C197D098E099F0906171707280711
:100BB000390708F442C08091BC0083FDD8CF85EC92
:100BC0008093BC000E9435046B017C018091790206
:100BD000823009F44CC0809177028F3F09F469C0DC
:100BE00080917702803209F466C080917702803369
:100BF00009F463C084E026C080917B0290917C025E
:100C0000A0917D02B0917E02892B8A2B8B2B09F457
:100C100083CF0E94350400917B0210917C022091C9
:100C20007D0230917E026C197D098E099F0906179D
:100C300017072807390708F06FCF80917A020E94C2
:100C4000570585E0109280021092A20210927F0256
:100C5000DF91CF911F910F91FF90EF90DF90CF9098
:100C600008959D9191938F5F6DCF85EEA9CF80916F
:100C70007B0290917C02A0917D02B0917E02892B33
:100C80008A2B8B2B09F4A2CF0E94350400917B02A2
:100C900010917C0220917D0230917E026C197D09B9
:100CA0008E099F09061717072807390708F08ECF06
:100CB000C4CF80E0C7CF82E0C5CF83E0C3CF089523
:100CC000E091260280912502E81730F4F0E0EC5420
:100CD000FE4F808190E008958FEF9FEF08959091EF
:100CE0002602809125022FEF3FEF981748F4E92F55
:100CF000F0E0EC54FE4F208130E09F5F909326029D
:100D0000C90108958091250290912602891B990BB3
:100D10000895CF92DF92EF92FF920F931F93CF939C
:100D2000DF937C01CB018A0120917F02222389F08D
:100D3000EB016B01C40ED51ECC15DD0569F0699180
:100D4000D701ED91FC910190F081E02DC70109954B
:100D5000F3CF642F0E941205C801DF91CF911F913C
:100D60000F91FF90EF90DF90CF900895CF93DF9396
:100D70001F92CDB7DEB7698320917F022223F9F05D
:100D80002091A202203258F021E030E0FC013383B0
:100D9000228390E080E00F90DF91CF9108958091C1
:100DA0008002E82FF0E0EF57FD4F998190838F5F2D
:100DB000809380028093A20281E090E0ECCF61E01A
:100DC000CE0101960E941205F7CFCF93C62FFC01EA
:100DD0008185806291E090937F028093A1021092BE
:100DE00080021092A20269E083EF92E00E94B606B0
:100DF0006C2F83EF92E00E94B6060E947805811165
:100E0000FCCFCF910895EF92FF920F931F93CF9352
:100E1000DF938C01E42EC62FD0E0BE017595679557
:100E20006877442399F16660F8018581F0E18F9F2E
:100E3000C00111248078F82EF62A6F2DC8010E9477
:100E4000E5066F2D6B7FC8010E94E50683E0CC0F9D
:100E5000DD1F8A95E1F7C877EE20D1F0C660F80172
:100E60008581F0E18F9FC00111248078C82B6C2F01
:100E7000C8010E94E5066C2F6B7FC801DF91CF91FE
:100E80001F910F91FF90EF900C94E5066460CCCF1A
:100E9000C460E5CFCF93DF93CDB7DEB728970FB609
:100EA000F894DEBF0FBECDBF98E0ECE0F1E0DE01CC
:100EB000119601900D929A95E1F79091060398177B
:100EC00010F48FEF890F90E0880F991F21E030E038
:100ED0002C0F3D1F820F931FFC016081606840E072
:100EE0008FEF92E028960FB6F894DEBF0FBECDBF0D
:100EF000DF91CF910C94030740E061E08FEF92E027
:100F00000E9403078BE39FE10197F1F7089541E009
:100F10000E94030781E090E0089590E080E008954A
:100F20000F931F93CF93DF93062F142FCFEFD0E0B3
:100F3000BE01681B71098BE00E949203BE01601B19
:100F400071098AE00E949203BE01611B710989E068
:100F5000DF91CF911F910F910C9492030E940F0388
:100F6000892BE1F764E670E080E090E00E945A048B
:100F70000E940F03892BE1F30895FC0101900020EA
:100F8000E9F73197AF01481B590BBC018FEF92E095
:100F90000C949602CF92DF92EF92FF921F93CF9321
:100FA000DF93182F809152020E944A078DE392E04E
:100FB0000E94BD07D0E0C0E08DE3E82E82E0F82E6D
:100FC00093E1C92ED12CF70101900020E9F7CF0160
:100FD0008E5392409601281B390BC217D30750F449
:100FE00041E050E06DE671E08FEF92E00E949602E2
:100FF0002196E9CF809152028F5F843050F4809324
:101000005202DF91CF911F91FF90EF90DF90CF9030
:10101000089510925202112379F00E940F03892B38
:10102000E1F764E670E080E090E00E945A040E94DC
:101030000F03892BE1F3E5CF6AEF70E080E090E0E9
:10104000DF91CF911F91FF90EF90DF90CF900C94A4
:101050005A0485ED8093BC0080917B0290917C02C4
:10106000A0917D02B0917E020796A11DB11D23E0E3
:10107000B695A795979587952A95D1F72091BC00AD
:1010800024FD03C010927902089540917B02509193
:101090007C0260917D0270917E02452B462B472B8E
:1010A00069F30097A105B10541F025E32A95F1F711
:1010B00000000197A109B109E1CF80917A020C9457
:1010C00057051F920F920FB60F9211248F939F9383
:1010D0008091E1009091E100937F9093E10083FF84
:1010E0000FC01092E90091E09093EB001092EC0099
:1010F00092E39093ED0010923C0298E09093F00000
:1011000082FF22C093E09093E9009091F20099232E
:1011100019F09AE39093E80090912D02992341F001
:1011200090912D02915090932D02911101C05D9AE2
:1011300090913B02992341F090913B029150909302
:101140003B02911101C0289A84FF18C08091E200EF
:101150008E7E81608093E2008091E1008F7E80939B
:10116000E10080912E028E7E806180932E029F91FD
:101170008F910F900FBE0F901F90189580FFF7CFA3
:101180008091E2008E7E80618093E2008091E10098
:101190008E7E8093E10080912E028E7E8160E5CF6D
:1011A0001F920F920FB60F921124CF92DF92EF92FF
:1011B000FF920F931F932F933F934F935F936F93E0
:1011C0007F938F939F93AF93BF93EF93FF93CF93AF
:1011D000DF93CDB7DEB76C97DEBFCDBF1092E900CD
:1011E0008091E80083FF25C068E0CE0145960E940B
:1011F000870282EF8093E8008D8987FF39C0909144
:10120000E80090FFFCCF982F907609F034C19E89BA
:101210004F89588D2F89F88C911131C0803861F534
:1012200080912C028093F1001092F1008EEF809358
:10123000E8006C960FB6F894DEBF0FBECDBFDF910D
:10124000CF91FF91EF91BF91AF919F918F917F913E
:101250006F915F914F913F912F911F910F91FF904F
:10126000EF90DF90CF900F900FBE0F901F901895CA
:101270009EEF9093E800C7CF1092F100D5CF913048
:1012800059F48111D3CF4130510581F680912C0260
:101290008D7F80932C02CACF933049F48111C6CF41
:1012A0004130510519F680912C028260F2CF9530C1
:1012B00041F48091E80080FFFCCF20682093E30098
:1012C000B5CF963009F0A9C00B8D1C8D22E010928D
:1012D000E90010922A0210922902F2122EC01092F6
:1012E0002802109227020E9456021F8299E09983D9
:1012F000FA8291E09E8390EA98879AEF99872091ED
:10130000290230912A02275F3F4F3C832B838D8334
:101310001092E90010922A021092290210932802DA
:101320000093270249E050E0BE016F5F7F4F80E0ED
:101330000E9430020E94560279CF10932802009337
:1013400027020E943A01DC0112960D911C910115B1
:10135000110509F451C1D801ED91FC910480F5818A
:10136000E02DBE016B5E7F4FC8010995009709F023
:101370003EC1F80100851185EACFF3E0FF120EC0EF
:101380008F89882309F440C0823061F440E860E12D
:101390008CE291E00E94FD01811148CF81E28093AF
:1013A000EB0047CF813029F440E86BE080E291E028
:1013B000F1CF833099F70E943A01DC011296ED904B
:1013C000FC908E010F5F1F4F6801E114F10479F06A
:1013D000D701ED91FC910680F781E02DB801C7019E
:1013E0000995080F111DF701E084F184EECFD801B3
:1013F0001C92F60101900020E9F73197BF016C19AA
:101400007D0940E0C601C6CF6AE071E0FB0144916E
:1014100050E080E80E94300209CF973009F4BECF37
:10142000983021F481E08093F10000CF993009F0E9
:10143000FDCE837009F0B2CFE7E3F1E081E031E067
:1014400096E32191222371F08093E9003093EB0021
:10145000DF0111972C912093EC009093ED008F5FAA
:10146000873079F78EE78093EA001092EA008F893F
:1014700080933C02DBCE8B8D9C8D1092E900109204
:101480002A02109229029093280280932702898DC4
:10149000811192C08E899D89913A49F4813209F077
:1014A0007DCF47E050E064E071E080E0B3CF91325F
:1014B00009F074CF833269F48F89988DB0E0A0E091
:1014C0008093000190930101A0930201B093030166
:1014D000ADCE803269F48091E80082FFFCCF67E0F6
:1014E00084E091E00E9487028BEF8093E8009ECE1B
:1014F000823209F09BCE8F8980930B01EEEFFFE7DC
:10150000859194918B3F9C4D51F1E0E0F8E0809102
:10151000040190910501A0910601B0910701803B63
:101520009440A105B105F1F480910B0180FD1AC032
:10153000EE3F8AE0F80789F587E797E79183808394
:101540008091600080932B0288E19BE00FB6F894B5
:10155000A895809360000FBE9093600067CEEEEF79
:10156000FAE0D5CF808191818737974709F05ECE29
:10157000A8958091600088618093600080912B0223
:1015800080936000EE3F2AE0F20789F08091FE0A26
:101590009091FF0A9183808349CE80819181873722
:1015A000980751F29093FF0A8093FE0AC5CF1092DC
:1015B000FF0A1092FE0A3ACE0E943A01DC0112960E
:1015C0000D911C910115110509F4E8CED801ED919A
:1015D000FC910190F081E02DBE016B5E7F4FC80150
:1015E0000995811123CEF80100851185EBCF1816DE
:1015F00019060CF41BCED2CEF1E0FF12BECE6EE087
:1016000071E004CF1F920F920FB60F9211242F9307
:101610003F938F939F93AF93BF93809119029091C3
:101620001A02A0911B02B0911C023091180223E013
:10163000230F2D3758F50196A11DB11D20931802D7
:101640008093190290931A02A0931B02B0931C027C
:1016500080911D0290911E02A0911F02B091200264
:101660000196A11DB11D80931D0290931E02A093AF
:101670001F02B0932002BF91AF919F918F913F9134
:101680002F910F900FBE0F901F90189526E8230FF3
:101690000296A11DB11DD2CF1F920F920FB60F92CD
:1016A00011242F933F934F935F936F937F938F9367
:1016B0009F93AF93BF93EF93FF938091B900887F7F
:1016C000803609F44AC0F0F5883209F4A7C018F54D
:1016D000803109F49BC0B8F4882309F4F9C088303C
:1016E00009F494C0FF91EF91BF91AF919F918F91B9
:1016F0007F916F915F914F913F912F910F900FBE0E
:101700000F901F901895883109F488C0803251F7E6
:101710008093770214C0803409F49DC040F4803374
:10172000B9F38833F9F68093770285ECB0C0803541
:1017300009F485C0883509F496C0883499F60E946A
:101740002908D0CF883909F48CC038F5883729F0BA
:1017500050F4883611F0803729F683E080937902BF
:101760001092170257C0883809F47BC0803919F0ED
:10177000803809F0B7CF80911702803208F071C02D
:10178000E091170281E08E0F809317028091BB00D9
:10179000F0E0E950FE4F80833DC0803B39F0E0F43B
:1017A000803A09F479C0883A09F09CCF84E08093AC
:1017B00079021092F6011092F501E0912302F09166
:1017C000240209958091F50181110FC081E0809379
:1017D000F5011092D50109C0803C09F4A6CF883CE0
:1017E00009F4A3CF883B09F07DCFE091F60181E0B9
:1017F0008E0F8093F601F0E0EB52FE4F80818093D4
:10180000BB009091F6018091F50129C080915402AE
:101810008093BB0085EC8093BC0064CF90917602EE
:1018200080917502981758F5E091760281E08E0F4D
:1018300080937602F0E0EB5AFD4F8081E9CFE09192
:10184000760281E08E0F809376028091BB00F0E0FB
:10185000EB5AFD4F80839091760280917502981724
:10186000C8F285E8D8CFE091760281E08E0F8093B0
:1018700076028091BB00F0E0EB5AFD4F80838091AF
:10188000780281115CCF81E08093530284EA8093D7
:10189000BC001092790226CF85EC8093BC00109298
:1018A000790280911702803230F4E0911702F0E063
:1018B000E950FE4F10826091170270E0E091210222
:1018C000F091220287EF91E00995109217020ACF5A
:1018D0001092770234CFE3EAF2E01382128288EEAC
:1018E00093E0A0E0B0E084839583A683B78321E4EE
:1018F00031E0318320832FEF3FEF35872487E3EFFB
:10190000F2E01382128284839583A683B78383E5F2
:1019100091E091838083EFEFF2E01382128285E6FB
:1019200091E091838083118614820895789484B520
:10193000826084BD84B5816084BD85B5826085BDCB
:1019400085B5816085BD80916E00816080936E0059
:10195000109281008091810082608093810080914B
:1019600081008160809381008091800081608093FC
:10197000800080919100826080939100809191001D
:1019800081608093910080919000816080939000AD
:101990008091C10084608093C1008091C100826009
:1019A0008093C1008091C10081608093C1008091CB
:1019B000C30081608093C3008091C00082608093E7
:1019C000C0008091C20081608093C20080917A0043
:1019D000846080937A0080917A00826080937A009C
:1019E00080917A00816080937A0080917A0080688B
:1019F00080937A0010923C0210922C0210922E02D8
:101A00008091D70081608093D70080EA8093D800CE
:101A100089B5806189BD89B5826089BD09B400FE40
:101A2000FDCF61E070E080E090E00E945A04809178
:101A3000D8008F7C80618093D8008091E000807F07
:101A40008093E0008091E1008E7E8093E1008DE044
:101A50008093E200559A209A62E370E080E090E083
:101A60000E945A04109226021092250210928002BF
:101A70001092A2020E94390584E992E09093240218
:101A80008093230285E992E09093220280932102C1
:101A9000809108038062C1E0C0937F028093A1021D
:101AA00060E083EF92E00E94B6066FEF83EF92E072
:101AB0000E94B60660E083EF92E00E94B60660E006
:101AC00083EF92E00E94B60660E083EF92E00E940E
:101AD000B60660E083EF92E00E94B60660E083EF16
:101AE00092E00E94B60660E083EF92E00E94B606A4
:101AF00060E083EF92E00E94B60660E083EF92E040
:101B00000E94B60660E083EF92E00E94B6060E9453
:101B10007805809108038062C0937F028093A102C0
:101B2000109280021092A20260E083EF92E00E9485
:101B3000B60660E083EF92E00E94B6060E94780548
:101B400080910303886080930303C4E0C09306037D
:101B5000109207036CE98FEF92E00E94E50668E9B6
:101B60008FEF92E00E94E5066CE98FEF92E00E9411
:101B7000E50668E98FEF92E00E94E5066CE98FEFD9
:101B800092E00E94E50668E98FEF92E00E94E50688
:101B900064E98FEF92E00E94E50660E98FEF92E042
:101BA0000E94E50665E070E080E090E00E945A0443
:101BB00060910303606240E08FEF92E00E940307B0
:101BC00065E070E080E090E00E945A0460910303B9
:101BD000606240E08FEF92E00E94030765E070E0F2
:101BE00080E090E00E945A04C093040340E06CE05F
:101BF0008FEF92E00E9403070E947C0782E08093AF
:101C0000050340E066E08FEF92E00E9403078091B9
:101C1000040388608093040360E88FEF92E00E94E1
:101C2000E5064FE76FEF80E00E94900762E083E1F6
:101C30000E9461030E947C0780E00E944A078FE6B1
:101C400091E00E94BD070E94AE070E947C0780E0E1
:101C50000E944A0785E891E00E94BD0762E083E1A7
:101C60000E9461030E94AE070E947C0764E670E058
:101C700080E090E00E945A0440E060E08FEF0E9414
:101C8000900764E670E080E090E00E945A0424E14E
:101C9000A22E21E0B22E4501D0E0C0E03AE9E32EC9
:101CA00031E0F32E0DE312E0F401D1904F016D2DE0
:101CB000CE010E94FA0E65E070E080E090E00E94A4
:101CC0005A04CE010E94F20E1F928F931F92DF9250
:101CD000DF93CF93FF92EF921F930F930E940E0F0B
:101CE00080E00E94CA072196EDB7FEB73A960FB67C
:101CF000F894FEBF0FBEEDBFC232D105A9F6C4E60F
:101D0000D0E09AE9E92E91E0F92E0DE312E0F50119
:101D1000D1905F016D2DCE010E94FA0E65E070E05A
:101D200080E090E00E945A04CE01845691090E94FE
:101D3000F20E1F928F931F92DF92DF93CF93FF9249
:101D4000EF921F930F930E940E0F80E00E94CA072C
:101D50002196EDB7FEB73A960FB6F894FEBF0FBEC8
:101D6000EDBFC638D10599F64FE76FEF80E00E94CE
:101D700090078FE691E00E94BD070E94AE070E9487
:101D80007C0780E00E944A07D0E0C0E086EAE82EA7
:101D900081E0F82E0DE312E0CE010E94F20E1F92B8
:101DA0008F93DF93CF93FF92EF921F930F930E9435
:101DB0000E0F81E00E94CA072196EDB7FEB7389654
:101DC0000FB6F894FEBF0FBEEDBFC232D10521F7AA
:101DD0008DEA91E00E94BD074FEF6FEF80E00E9417
:101DE0009007FFCFF999FECF92BD81BDF89A992750
:101DF00080B50895262FF999FECF1FBA92BD81BDF7
:101E000020BD0FB6F894FA9AF99A0FBE019608957C
:101E1000EE0FFF1F0590F491E02D0994AEE0B0E0C5
:101E2000E4E1FFE00C94BD110D891E8986E08C83EE
:101E30001A8309838FEF9FE79E838D83AE01475EF0
:101E40005F4F6F89788DCE0101960E94310F2F81EF
:101E50003885020F131FF80110822E96E4E00C94CF
:101E6000D911ABE0B0E0E7E3FFE00C94AF117C01E7
:101E70003B018A01FC0117821682838181FFC8C160
:101E8000CE0101965C01F7019381F30193FD8591E9
:101E900093FF81913F01882309F453C1853239F4BE
:101EA00093FD859193FF81913F01853229F4B7011C
:101EB00090E00E942111E7CF912C212C312CFFE1E1
:101EC000F31538F08B3211F190F4803209F183323E
:101ED00029F137FC3CC020ED280F2A3050F536FEA2
:101EE00020C08AE0989E200D1124922E06C08D32CB
:101EF00091F0803371F7689430F8F30193FD859188
:101F000093FF81913F018111DACF21C0689431F8AC
:101F1000689432F8F2CF689433F8EFCF689434F8CD
:101F2000ECCFEAE02E9E200D1124222E689435F885
:101F3000E4CF8E3229F436FC04C1689436F8DDCF44
:101F40008C3619F4689437F8D8CF8836B1F2982FC8
:101F50009F7D95549330E0F08336A1F18337C1F132
:101F6000833509F063C02801F2E04F0E511CF801DF
:101F7000C080D180692D70E036FC02C06FEF7FEF2A
:101F8000C6010E940B114C01689437F882010AC007
:101F90000C5F1F4FFFE3F98388248394912C650124
:101FA000E89437F833FE2DC0522C8114910471F55A
:101FB000552009F468CFB70180E290E00E9421111A
:101FC0005A94F6CFF801808189830E5F1F4FE4CFCA
:101FD0002801F2E04F0E511CF801C080D180692D1C
:101FE00070E036FC02C06FEF7FEFC6010E94161151
:101FF0004C018201D5CFB70180E290E00E9421110F
:102000002A942814190409F0B0F7CECFF60137FC52
:10201000859137FE81916F01B70190E00E942111F7
:1020200051105A94F1E08F1A9108BFCF843619F0FD
:10203000893609F077C0F80137FE6BC06081718185
:10204000828193810C5F1F4FF32DFF763F2E97FF08
:1020500009C090958095709561957F4F8F4F9F4FE8
:10206000689437F82AE030E0A5010E945111C82E8B
:10207000CA188C2C432C36FE0CC0E89440F8C914C6
:1020800040F434FE05C032FC03C0F32DFE7E4F2E1B
:10209000892C44FE95C0FE01EC0DF11D808180333A
:1020A00009F087C0242D297E422E842D8870582E59
:1020B00043FC95C040FE8FC09C2C821418F42C0C5D
:1020C000922C981844FE91C0B70180E390E00E94E2
:1020D000211142FE09C088E790E041FE02C088E578
:1020E00090E0B7010E942111C91408F48AC0CA9473
:1020F000D12C9FEFC91AD90ACA0CDB1CF6018291B8
:102100006F01B70190E00E942111AC14BD04B1F73A
:102110004FCF60817181072E000C880B990B0E5FE9
:102120001F4F92CFD32CE894D4F82AE030E08537C3
:1021300039F1232D297FD22E8F3601F148F48835CD
:10214000A9F0F701868197812B96E2E10C94CB11DF
:10215000803749F08837A9F7D4FE02C06894D2F8D6
:1021600020E130E00DC06894D4F8F6CF34FE03C00F
:10217000822F8660D82E20E132E002C028E030E0D5
:10218000F801D7FE0FC060817181828193810C5F5D
:102190001F4FA5010E945111C82ECA183D2CE8946A
:1021A00037F867CF6081718190E080E00E5F1F4F4C
:1021B000F0CF42FC02C0839478CF8394839475CF90
:1021C000842D867809F471CFF6CFB70180E290E0D4
:1021D0000E94211183948214C0F3512C73CF522C8E
:1021E0005818821408F46ECFF8CF842D867809F43D
:1021F0007BCF8BE241FE80E247FC8DE2B70190E0AD
:1022000071CFB70180E390E00E9421119A946CCFC6
:102210008FEF9FEF99CFFC01059061507040011046
:10222000D8F7809590958E0F9F1F0895FC016150FF
:10223000704001900110D8F7809590958E0F9F1FE8
:1022400008950F931F93CF93DF93182F092FEB015E
:102250008B8181FD09C01FEF0FEF812F902FDF9140
:10226000CF911F910F91089582FF14C02E813F815D
:102270008C819D81281739073CF4E881F981CF01D1
:1022800001969983888310838E819F8101969F8315
:102290008E83E3CFE885F985812F0995892BA1F3FA
:1022A000DACFFA01AA27283051F1203181F1E894E0
:1022B0006F936E7F6E5F7F4F8F4F9F4FAF4FB1E039
:1022C0003ED0B4E03CD0670F781F891F9A1FA11D34
:1022D000680F791F8A1F911DA11D6A0F711D811D35
:1022E000911DA11D20D009F468943F912AE0269FFA
:1022F00011243019305D3193DEF6CF010895462F59
:102300004770405D4193B3E00FD0C9F7F6CF462F39
:102310004F70405D4A3318F0495D31FD40524193A2
:1023200002D0A9F7EACFB4E0A6959795879577955F
:102330006795BA95C9F700976105710508959B01E6
:10234000AC010A2E06945795479537952795BA956F
:10235000C9F7620F731F841F951FA01D08952F9248
:102360003F924F925F926F927F928F929F92AF9225
:10237000BF92CF92DF92EF92FF920F931F93CF9372
:10238000DF93CDB7DEB7CA1BDB0B0FB6F894DEBF09
:102390000FBECDBF09942A88398848885F846E842F
:1023A0007D848C849B84AA84B984C884DF80EE8079
:1023B000FD800C811B81AA81B981CE0FD11D0FB682
:1023C000F894DEBF0FBECDBFED010895F894FFCFA6
:1023D000FFFFFFFF00E100000000000000004000E0
:1023E0001400540001000000960000005A009600FE
:1023F000C8003C007800D900FE003C009600640054
:1024000032002D00C80000C18081000000000000E3
:10241000004E018C046F016401B50173019101004C
:10242000000000B60689068D075F0682066F06600B
:102430000600000000870796028D07110520005056
:102440007265737320456E74657220746F205265D7
:102450007669657700507265737320456E74657296
:1024600020746F20626567696E0025643A202564D8
:10247000202D2025640025643A20256400446F6ED9
:0424800065210000D2
:00000001FF
